:100000000C9497000C94BF000C94BF000C94BF009C
:100010000C94BF000C94BF000C94BF000C94BF0064
:100020000C94BF000C94BF000C94BF000C9472059C
:100030000C94BF000C94BF000C94BF000C94BF0044
:100040000C94BF000C94BF000C94BF000C94BF0034
:100050000C94BF0008000000BE922449123EABAAD7
:10006000AA2ABECDCCCC4C3E00000080BEABAAAAD2
:10007000AA3E00000000BF000000803F000000001A
:1000800000084178D3BB4387D1133D190E3CC3BD53
:100090004282AD2B3E68EC8276BED98FE1A93E4C00
:1000A00080EFFFBE01C4FF7F3F00000000000000A2
:1000B0003A0037003400310000003B0038003500C2
:1000C0003200000039003600330030000101010128
:1000D00001010101020202020202020203030404FE
:1000E00004040404040403030303030380402010F6
:1000F00008040201010204081020408001020408E3
:100100001020408001020408102040800000000000
:1001100000000000000000010000000000000000DE
:100120000403000500000000000000001E0111246F
:100130001FBECFE5D8E0DEBFCDBF10E0A0E6B0E047
:10014000E0EEF5E102C005900D92A838B107D9F7AD
:1001500010E0A8E8B0E001C01D92A43CB107E1F7AF
:1001600011E0CEE2D1E004C02297FE010E94EA0A2B
:10017000CC32D107C9F70E940D070C94EE0A0C94FB
:10018000000080919B0090919C008632910514F0B4
:100190001092A70083971CF481E08093A7008091C0
:1001A0009D0090919E008632910514F01092A80057
:1001B00083971CF481E08093A80080919F00909128
:1001C000A0008632910514F01092A90083971CF4C8
:1001D00081E08093A9008091A1009091A2008632D5
:1001E000910514F01092AA0083971CF481E080938B
:1001F000AA008091A7009091A300899F802D1124CF
:100200008093A7008091A8009091A400899F802DE1
:1002100011248093A8008091A9009091A500899F46
:10022000802D11248093A9008091AA009091A600AE
:10023000899F802D11248093AA000895CF92EF9278
:100240000F9388E890E06EE14FE120E001E052E09A
:10025000E52E33E0C32E0E943D050F91EF90CF9025
:1002600008958DE160E00E9471068CE160E00E94DB
:1002700071068BE160E00E9471068AE160E00E94F5
:1002800071068BE061E00E9471068CE061E00E94E3
:10029000710688E161E00E94710689E161E00E94D7
:1002A000710685E161E00E94710684E161E00E94CF
:1002B000710683E161E00E94710682E161E00E94C3
:1002C000710608950F931F9308E810E0C80160E0DD
:1002D00040E00E945004C80160E670E00E944B07B5
:1002E00060919B0070919C00C8014AE050E00E9420
:1002F0002308C80168E040E00E945004C80164E699
:1003000070E00E944B0760919D0070919E00C801B3
:100310004AE050E00E942308C80160E041E00E94EA
:100320005004C80168E670E00E944B0760919F008E
:100330007091A000C8014AE050E00E942308C80163
:1003400068E041E00E945004C8016CE670E00E9441
:100350004B076091A1007091A200C8014AE050E0F3
:100360000E94230860E971E080E090E00E94D405DB
:100370001F910F910895AF92BF92CF92DF92EF92AB
:10038000FF920F931F93AA2797FDA095BA2FBC0148
:10039000CD010E9436099B01AC0160E070E080E86D
:1003A00094E40E949B0820E030E040E85FE30E9474
:1003B0003608209170003091710040917200509188
:1003C00073000E94070A0E9403090E9436090E94D6
:1003D000C7097B018C0123E73FE745E759E30E940A
:1003E000070A2BEE3FEF43E95AE30E9437085B010F
:1003F0006C01C801B70129E537E44CEB53E30E94D7
:10040000070AA80197010E94070AA80197010E9404
:10041000070A9B01AC01C601B5010E9437089B0188
:10042000AC0160E070E080E89FE30E949B0823E35A
:1004300033E948E853E40E94360820E030E040EE1B
:1004400050E40E9436080E940309CB011F910F91CE
:10045000FF90EF90DF90CF90BF90AF90089583E032
:100460000E9458060E94BB0190939C0080939B00C1
:1004700082E00E9458060E94BB0190939E008093E8
:100480009D0081E00E9458060E94BB019093A0004D
:1004900080939F0080E00E9458060E94BB019093C9
:1004A000A2008093A10008958DE10E94D40680935C
:1004B000A3008CE10E94D4068093A4008BE10E94EB
:1004C000D4068093A5008AE10E94D4068093A600FA
:1004D00008958BE06091A7000E9497068CE06091E0
:1004E000A8000E94970688E16091A9000E949706E3
:1004F00089E16091AA000E94970608951F93E0E0A9
:10050000F0E08091B9009091BA00892B11F4E1E0FC
:10051000F0E0A091B500B091B60040E050E08091CD
:10052000B3009091B400839714F441E050E020E0D0
:1005300030E0109711F421E030E02E9FC0012F9F92
:10054000900D3E9F900D11249C01249FC001259F7A
:10055000900D349F900D1124182F8093AB004E9F67
:10056000B0014F9F700D5E9F700D112420E030E0B0
:10057000A130B10511F421E030E0629FC001639F1A
:10058000900D729F900D11248093AC0020E030E01C
:10059000A230B10511F421E030E0629FC001639FF9
:1005A000900D729F900D11248093AD0020E030E0FB
:1005B000139711F421E030E0629FC001639F900D1A
:1005C000729F900D11248093AE006091A300169F3E
:1005D000602D112485E10E9497066091A40080910E
:1005E000AC00689F602D112484E10E949706609101
:1005F000A5008091AD00689F602D112483E10E94C9
:1006000097066091A6008091AE00689F602D11242E
:1006100082E10E9497061F910895EF92FF920F9337
:100620001F930E94C60524EF31E040E050E00E9495
:10063000B20A122F032FF42EE52E2093AF00309331
:10064000B0004093B1005093B200622F732F842FFB
:10065000952F2CE330E040E050E00E94B20A709306
:10066000B4006093B300612F702F8F2D9E2D2CE36B
:1006700030E040E050E00E94B20ADA01C9016CE3C8
:1006800070E00E949F0A9093B6008093B500612F9E
:10069000702F8F2D9E2D20E13EE040E050E00E9423
:1006A000B20ADA01C90168E170E00E949F0A8093F2
:1006B000B7009093B80062E070E00E949F0A9093A8
:1006C000BA008093B9001F910F91FF90EF900895A9
:1006D0000E942F020E94540288E890E060E142E00C
:1006E00020E00E9487040E9462010E94C1000E94D3
:1006F00069020E940D030E947E02089588E890E03E
:1007000060E142E020E00E9487040E9431010895E8
:100710000F931F938C01FC01848160E00E94970677
:1007200081E090E00E942F06F801848161E00E9440
:10073000970681E090E00E942F06F801848160E036
:100740000E94970684E690E00E942F061F910F9169
:100750000895CF92DF92EF92FF920F931F93CF9362
:10076000DF93D82EC92E282F392FC9018C01C0E064
:10077000D0E0E62EFF24F801858161E00E94710639
:10078000B7010C2E02C0759567950A94E2F7617067
:10079000F80185810E94970621960F5F1F4FC83090
:1007A000D10549F78D2D9C2D0E948803DF91CF91B3
:1007B0001F910F91FF90EF90DF90CF900895CF920F
:1007C000DF92EF92FF920F931F93CF93DF93D82E78
:1007D000C92E282F392FC9018C01C0E0D0E0E62EA8
:1007E000FF24F801858161E00E947106B7010C2E9B
:1007F00002C0759567950A94E2F76170F8018581EA
:100800000E94970621960F5F1F4FC430D10549F70C
:100810008D2D9C2D0E948803DF91CF911F910F9108
:10082000FF90EF90DF90CF9008951F93CF93DF93C9
:10083000EC01162F8A81642F0E9497068B818F3FCF
:1008400019F060E00E9497068D8584FF05C0CE01F7
:10085000612F0E94A9030EC0612F70E084E075959E
:1008600067958A95E1F7CE010E94DF03CE01612FE3
:100870000E94DF03DF91CF911F91089541E00E9414
:100880001504089540E00E9415040895FC01668552
:10089000862F846086876C60CF010E944204089591
:1008A000DF93CF93CDB7DEB728970FB6F894DEBFAE
:1008B0000FBECDBF9C01FE013196AFE7B0E088E0EE
:1008C0000D9001928150E1F7F9018189841710F4AC
:1008D000482F4150E42FF0E0EE0FFF1FEC0FFD1FFB
:1008E0008181680F6068C9010E94420428960FB692
:1008F000F894DEBF0FBECDBFCF91DF91089561E0C8
:100900000E94420480ED97E00E942F060895CF9345
:10091000DF93EC01423018F08D8588608D87498B1C
:100920001A8A222329F0413019F48D8584608D873D
:1009300080E593EC0E942F068A8160E00E94970672
:100940008C8160E00E9497068B818F3F19F060E0F8
:100950000E9497066D8564FD1DC0CE0163E00E9474
:10096000DF0384E991E10E942F06CE0163E00E943B
:10097000DF0384E991E10E942F06CE0163E00E942B
:10098000DF0386E990E00E942F06CE0162E00E941C
:10099000DF0316C06062CE010E94420484E991E147
:1009A0000E942F066D856062CE010E94420486E996
:1009B00090E00E942F066D856062CE010E94420485
:1009C0006D856062CE010E94420484E08E87CE0174
:1009D0000E944604CE010E947F0482E08F87CE01F0
:1009E00066E00E944204DF91CF9108956F927F925A
:1009F0008F92AF92CF92EF920F931F93DF93CF938B
:100A0000CDB7DEB73C01162F842FF3014283238339
:100A10000483E582C682A78280869D8591879E8514
:100A200092879F8593879889948761E00E947106D9
:100A3000F30183818F3F19F061E00E947106F30199
:100A4000848161E00E947106112319F0F30115867B
:100A500003C080E1F3018587C30160E141E020E04C
:100A60000E948704CF91DF911F910F91EF90CF905B
:100A7000AF908F907F906F9008958F92AF92CF92AA
:100A8000EF920F931F93CF93DF93DC01362F542FF8
:100A9000722F102FAE2C8C2C89E790E011969C932E
:100AA0008E9300D000D0EDB7FEB73196CDB7DEB74C
:100AB0001982118212821382CD0161E0432F2FEF40
:100AC000052FE72EC12E0E94F6040F900F900F9075
:100AD0000F90DF91CF911F910F91EF90CF90AF903A
:100AE0008F9008951F920F920FB60F9211242F939B
:100AF0003F934F935F936F937F938F939F93AF93A6
:100B0000BF932091BF003091C0004091C10050912F
:100B1000C2007091C300DA01C9010296A11DB11D86
:100B2000672F6A5F6D3730F06D57DA01C9010396A0
:100B3000A11DB11D6093C3008093BF009093C000BE
:100B4000A093C100B093C2008091BB009091BC0003
:100B5000A091BD00B091BE000196A11DB11D809372
:100B6000BB009093BC00A093BD00B093BE00BF91AA
:100B7000AF919F918F917F916F915F914F913F9135
:100B80002F910F900FBE0F901F9018958FB7F8946C
:100B90002091BF003091C0004091C1005091C2002F
:100BA0008FBFB901CA0108959B01AC017FB7F894CA
:100BB0008091BB009091BC00A091BD00B091BE009F
:100BC00062B708B600FE05C06F3F19F00196A11D7F
:100BD000B11D7FBFBA2FA92F982F8827860F911D8F
:100BE000A11DB11D63E0880F991FAA1FBB1F6A9545
:100BF000D1F7BC012EC0FFB7F8948091BB00909153
:100C0000BC00A091BD00B091BE00E2B708B600FEE6
:100C100005C0EF3F19F00196A11DB11DFFBFBA2F0E
:100C2000A92F982F88278E0F911DA11DB11DE3E0DC
:100C3000880F991FAA1FBB1FEA95D1F7861B970B38
:100C4000885E9340C0F2215030404040504068518F
:100C50007C4F211531054105510569F6089501972D
:100C600039F0019729F0880F991F01970197F1F743
:100C70000895789483B7826083BF83B7816083BF10
:100C800089B7816089BF8EB582608EBD8EB5816067
:100C90008EBD8FB581608FBD85B5846085BD85B5FE
:100CA000806485BD329A319A309A379A1AB808957D
:100CB000982F8E3008F09E50977080917400829526
:100CC000880F880F807C892B87B9369A3699FECF9A
:100CD00024B145B1942F80E030E0282B392BC90195
:100CE0000895482F50E0CA0184519F4FFC01249180
:100CF00044535F4FFA0184918823C1F0E82FF0E05C
:100D0000EE0FFF1FE255FF4FA591B491662341F40A
:100D10009FB7F8948C91209582238C939FBF089560
:100D20009FB7F8948C91822B8C939FBF0895482F86
:100D300050E0CA01845F9E4FFC012491CA01845196
:100D40009F4FFC01349144535F4FFA0194919923D2
:100D500051F1222381F0243039F0253049F023303D
:100D600051F48FB58F7702C08FB58F7D8FBD03C0D3
:100D700085B58F7D85BDE92FF0E0EE0FFF1FE854AC
:100D8000FF4FA591B491662341F49FB7F8948C91DD
:100D9000309583238C939FBF08959FB7F8948C91CF
:100DA000832B8C939FBF0895682F70E0CB01845FE5
:100DB0009E4FFC012491CB0184519F4FFC01449133
:100DC00064537F4FFB019491992319F420E030E0A4
:100DD00022C0222381F0243039F0253049F023301D
:100DE00051F48FB58F7702C08FB58F7D8FBD03C053
:100DF00085B58F7D85BD892F90E0880F991F8E5313
:100E00009F4FFC01A591B4918C9120E030E08423A8
:100E100011F021E030E0C90108950E9439060E94D6
:100E20007E030E946803FDCF0F931F93CF93DF9340
:100E30008C01EB0109C02196D801ED91FC91019044
:100E4000F081E02DC801099568816623A1F7DF9143
:100E5000CF911F910F910895EF92FF920F931F93DF
:100E6000CF93DF938C017B01EA010CC0D7016D9118
:100E70007D01D801ED91FC910190F081E02DC80138
:100E800009952197209791F7DF91CF911F910F91AD
:100E9000FF90EF900895DC01ED91FC910280F381C9
:100EA000E02D099508952F923F924F925F926F9295
:100EB0007F928F929F92AF92BF92CF92DF92EF92EA
:100EC000FF920F931F93DF93CF93CDB7DEB7A09719
:100ED0000FB6F894DEBF0FBECDBF1C016A017B01C7
:100EE000411551056105710549F440E350E060E0AA
:100EF00070E020E030E00E94ED0756C0882499247D
:100F00005401422E55246624772401E010E00C0F92
:100F10001D1F080D191DC701B601A30192010E94F2
:100F2000B20AF80160830894811C911CA11CB11CB9
:100F3000C701B601A30192010E94B20AC901DA01F8
:100F40006C017D01C114D104E104F104F1F681E0EA
:100F5000E82EF12CEC0EFD1EE80CF91C3E01089465
:100F6000611C711CD501C4010197A109B1096C0173
:100F7000C818D90816C0F601EE0DFF1D40814A3091
:100F800010F4405D01C0495C552747FD5095652F21
:100F9000752FC10120E030E00E94ED070894E108C0
:100FA000F1086E147F0439F7A0960FB6F894DEBFEF
:100FB0000FBECDBFCF91DF911F910F91FF90EF90AA
:100FC000DF90CF90BF90AF909F908F907F906F9069
:100FD0005F904F903F902F900895EF92FF920F9364
:100FE0001F93CF93DF93EC017A018B01211531051B
:100FF00041F4E881F9810190F081E02D642F099599
:101000001BC02A303105B1F477FF10C04DE250E02B
:1010100060E070E020E030E00E94ED071095009560
:10102000F094E094E11CF11C011D111DCE01B801EA
:10103000A7012AE00E945307DF91CF911F910F91E2
:10104000FF90EF900895EF92FF920F931F937B0113
:101050009A010027F7FC0095102FB801A7010E9404
:10106000ED071F910F91FF90EF9008955058BB2707
:10107000AA270ED04DC13ED130F043D120F031F43B
:101080009F3F11F41EF433C10EF4E095E7FB29C134
:10109000E92F4FD180F3BA176207730784079507CA
:1010A00018F071F49EF567C10EF4E0950B2EBA2F7F
:1010B000A02D0B01B90190010C01CA01A00111245E
:1010C000FF27591B99F0593F50F4503E68F11A160A
:1010D000F040A22F232F342F4427585FF3CF46959B
:1010E00037952795A795F0405395C9F77EF41F16BD
:1010F000BA0B620B730B840BBAF09150A1F0FF0F87
:10110000BB1F661F771F881FC2F70EC0BA0F621F72
:10111000731F841F48F4879577956795B795F79562
:101120009E3F08F0B3CF9395880F08F09927EE0FF4
:101130009795879508950CD0EBC0E3D040F0DAD0B6
:1011400030F021F45F3F19F0CCC0511115C1CFC070
:10115000F0D098F39923C9F35523B1F3951B550BA0
:10116000BB27AA2762177307840738F09F5F5F4F7A
:10117000220F331F441FAA1FA9F333D00E2E3AF0BB
:10118000E0E830D091505040E695001CCAF729D0D5
:10119000FE2F27D0660F771F881FBB1F2617370724
:1011A0004807AB07B0E809F0BB0B802DBF01FF2754
:1011B00093585F4F2AF09E3F510568F092C0DCC003
:1011C0005F3FECF3983EDCF3869577956795B7958E
:1011D000F7959F5FC9F7880F911D9695879597F9A9
:1011E0000895E1E0660F771F881FBB1F6217730722
:1011F0008407BA0720F0621B730B840BBA0BEE1F37
:1012000088F7E095089504D06894B111B5C00895A9
:1012100098D088F09F5790F0B92F9927B751A0F038
:10122000D1F0660F771F881F991F1AF0BA95C9F77A
:1012300012C0B13081F09FD0B1E008959CC0672FFB
:10124000782F8827B85F39F0B93FCCF3869577952A
:101250006795B395D9F73EF4909580957095619513
:101260007F4F8F4F9F4F0895E89409C097FB3EF43E
:1012700090958095709561957F4F8F4F9F4F9923E3
:10128000A9F0F92F96E9BB279395F6958795779561
:101290006795B795F111F8CFFAF4BB0F11F460FF21
:1012A0001BC06F5F7F4F8F4F9F4F16C0882311F079
:1012B00096E911C0772321F09EE8872F762F05C08D
:1012C000662371F096E8862F70E060E02AF09A9528
:1012D000660F771F881FDAF7880F9695879597F91D
:1012E000089597F99F6780E870E060E008959FEFA8
:1012F00080EC089500240A941616170618060906AD
:10130000089500240A94121613061406050608957B
:10131000092E0394000C11F4882352F0BB0F40F403
:10132000BF2B11F460FF04C06F5F7F4F8F4F9F4F43
:10133000089557FD9058440F551F59F05F3F71F0C5
:101340004795880F97FB991F61F09F3F79F087952C
:101350000895121613061406551FF2CF4695F1DFB5
:1013600008C0161617061806991FF1CF8695710545
:10137000610508940895E894BB2766277727CB0179
:1013800097F908950EF0A6C0B2CF6894AACFD9DF1E
:10139000C8F39923D1F3C6F3DF93CF931F930F9331
:1013A000FF92C92FDD2788232AF02197660F771F28
:1013B000881FDAF720E030E040E85FEB9FE38839F0
:1013C00020F0803E30F021968F7751DEE4E5F0E0AA
:1013D00003C04DDEE1E8F0E08DD08B01BE01EC01F1
:1013E000FB2E6F5771097595771F880B990B3EDFA0
:1013F00028E132E741E35FE316D0AF2D9801AE015B
:10140000FF900F911F91CF91DF9142DE81CF0BD0E2
:101410007FCF70DF28F075DF18F0952309F061CFDA
:1014200066CF1124A9CF85DFA0F3959FD1F3950F47
:1014300050E0551F629FF001729FBB27F00DB11D58
:10144000639FAA27F00DB11DAA1F649F6627B00DE8
:10145000A11D661F829F2227B00DA11D621F739FD1
:10146000B00DA11D621F839FA00D611D221F749FDF
:101470003327A00D611D231F849F600D211D822F26
:10148000762F6A2F11249F5750408AF0E1F088236D
:101490004AF0EE0FFF1FBB1F661F771F881F91507A
:1014A0005040A9F79E3F510570F01BCF65CF5F3FBD
:1014B000ECF3983EDCF3869577956795B795F795AD
:1014C000E7959F5FC1F7FE2B880F911D9695879535
:1014D00097F908959F3F49F0915028F486957795A4
:1014E0006795B7959F5F80389F4F880F9695879532
:1014F00097F90895DF93CF931F930F93FF92EF9285
:10150000DF927B018C01689405C0DA2EEF018BDF3E
:10151000FE01E894A5912591359145915591AEF341
:10152000EF01B6DDFE019701A801DA9479F7DF90AB
:10153000EF90FF900F911F91CF91DF91089597FB4E
:10154000092E07260AD077FD04D02ED006D0002021
:101550001AF4709561957F4F0895F6F790958195EF
:101560009F4F0895A1E21A2EAA1BBB1BFD010DC0BF
:10157000AA1FBB1FEE1FFF1FA217B307E407F50743
:1015800020F0A21BB30BE40BF50B661F771F881F1F
:10159000991F1A9469F760957095809590959B01B5
:1015A000AC01BD01CF010895AA1BBB1B51E107C0CF
:1015B000AA1FBB1FA617B70710F0A61BB70B881FE3
:1015C000991F5A95A9F780959095BC01CD01089572
:1015D000EE0FFF1F0590F491E02D0994F894FFCFD2
:1015E00054313A0054323A0054333A0054343A00F9
:1015F00000E8194601000000003E0414072C070013
:0816000000400014005400003A
:00000001FF
