:100000000C9497000C94BF000C94BF000C94BF009C
:100010000C94BF000C94BF000C94BF000C94BF0064
:100020000C94BF000C94BF000C94BF000C942906E4
:100030000C94BF000C94BF000C94BF000C94BF0044
:100040000C94BF000C94BF000C94BF000C94BF0034
:100050000C94BF0008000000BE922449123EABAAD7
:10006000AA2ABECDCCCC4C3E00000080BEABAAAAD2
:10007000AA3E00000000BF000000803F000000001A
:1000800000084178D3BB4387D1133D190E3CC3BD53
:100090004282AD2B3E68EC8276BED98FE1A93E4C00
:1000A00080EFFFBE01C4FF7F3F00000000000000A2
:1000B0003A0037003400310000003B0038003500C2
:1000C0003200000039003600330030000101010128
:1000D00001010101020202020202020203030404FE
:1000E00004040404040403030303030380402010F6
:1000F00008040201010204081020408001020408E3
:100100001020408001020408102040800000000000
:1001100000000000000000010000000000000000DE
:10012000040300050000000000000000220111246B
:100130001FBECFE5D8E0DEBFCDBF10E0A0E6B0E047
:10014000E4EAF8E102C005900D92A838B107D9F7AA
:1001500010E0A8E8B0E001C01D92A93CB107E1F7AA
:1001600011E0CEE2D1E004C02297FE010E944C0CC7
:10017000CC32D107C9F70E94C4070C94500C0C94E0
:10018000000080919B0090919C008536910514F0B1
:100190001092A700813691051CF481E08093A7009E
:1001A00080919D0090919E008536910514F01092EB
:1001B000A800813691051CF481E08093A80080910D
:1001C0009F009091A0008536910514F01092A9002F
:1001D000813691051CF481E08093A9008091A100F3
:1001E0009091A2008536910514F01092AA008136F4
:1001F00091051CF481E08093AA008091A700909162
:10020000A300899F802D11248093A7008091A800CE
:100210009091A400899F802D11248093A800809143
:10022000A9009091A500899F802D11248093A90099
:100230008091AA009091A600899F802D112480931F
:10024000AA000895CF92EF920F9388E890E06EE1B4
:100250004FE120E001E052E0E52E33E0C32E0E94A2
:10026000F4050F91EF90CF9008958DE160E00E942A
:1002700028078CE160E00E9428078BE160E00E9483
:1002800028078AE160E00E9428078BE061E00E9475
:1002900028078CE061E00E94280788E161E00E9465
:1002A000280789E161E00E94280786E161E00E9459
:1002B000280785E161E00E94280784E161E00E944F
:1002C000280783E161E00E94280782E161E00E9443
:1002D000280787E161E00E94280780E161E00E9431
:1002E000280781E161E00E94280708950F931F937A
:1002F00008E810E0C80160E040E00E940705C8017E
:1003000060E670E00E94020860919B0070919C0082
:10031000C8014AE050E00E94DA08C80168E040E005
:100320000E940705C80164E670E00E94020860911F
:100330009D0070919E00C8014AE050E00E94DA08DA
:10034000C80160E041E00E940705C80168E670E06E
:100350000E94020860919F007091A000C8014AE0CD
:1003600050E00E94DA08C80168E041E00E940705F9
:10037000C8016CE670E00E9402086091A1007091D3
:10038000A200C8014AE050E00E94DA0864EF71E080
:1003900080E090E00E948B06C8010E9436051F9104
:1003A0000F910895AF92BF92CF92DF92EF92FF929A
:1003B0000F931F93AA2797FDA095BA2FBC01CD01DB
:1003C0000E943A0A9B01AC0160E070E080E894E48E
:1003D0000E949F0920E030E040E85FE30E94360978
:1003E0002091700030917100409172005091730023
:1003F0000E942F0B0E94070A0E943A0A0E94EF0AED
:100400007B018C0123E73FE745E759E30E942F0B6F
:100410002BEE3FEF43E95AE30E9437095B016C0181
:10042000C801B70129E537E44CEB53E30E942F0BD9
:10043000A80197010E942F0BA80197010E942F0B82
:100440009B01AC01C601B5010E9437099B01AC01BB
:1004500060E070E080E89FE30E949F0923E333E9B6
:1004600048E853E40E94360900D000D00DB71EB70B
:100470000F5F1F4F20E030E040EE50E40E9436094D
:100480000E94070A24ED30E040E050E0F8012083AC
:1004900031834283538320E030E040E050E0F4E6D3
:1004A000EF2EF12C012D112DE0E2AE2EB12CC12C3E
:1004B000D12C0E94ED080E943A0A7B018C010F901A
:1004C0000F900F900F9020E030E040E052E40E9447
:1004D0009B09882351F40F2EF0E0EF2EF0E0FF2E61
:1004E000F0E00F2FF0E01F2FF02DC801B7010E94A0
:1004F000070ACB011F910F91FF90EF90DF90CF90F3
:10050000BF90AF90089583E00E940F070E94D20130
:1005100090939C0080939B0082E00E940F070E94B2
:10052000D20190939E0080939D0081E00E940F076E
:100530000E94D2019093A00080939F0080E00E94CF
:100540000F070E94D2019093A2008093A10008950A
:100550008DE10E948B078093A3008CE10E948B07A2
:100560008093A4008BE10E948B078093A5008AE111
:100570000E948B078093A60008958BE06091A700EE
:100580000E944E078CE06091A8000E944E0788E10F
:100590006091A9000E944E0789E16091AA000E9423
:1005A0004E0708951F93A0E0B0E08091BE009091A7
:1005B000BF00892B11F4A1E0B0E0E091BA00F09106
:1005C000BB0060E070E08091B8009091B900C997DD
:1005D00014F461E070E020E030E0309711F421E0A5
:1005E00030E02A9FC0012B9F900D3A9F900D11245F
:1005F0009C01269FC001279F900D369F900D1124CE
:10060000182F8093AC006A9FA0016B9F500D7A9FBA
:10061000500D112420E030E0E130F10511F421E02B
:1006200030E0429FC001439F900D529F900D1124D6
:100630008093AD0020E030E0E230F10511F421E0DC
:1006400030E0429FC001439F900D529F900D1124B6
:100650008093AE0020E030E0E330F10511F421E0BA
:1006600030E0429FC001439F900D529F900D112496
:100670008093AF0020E030E0EE31F10511F421E08D
:1006800030E0429FC001439F900D529F900D112476
:100690008093B00020E030E0EF31F10511F421E06B
:1006A00030E0429FC001439F900D529F900D112456
:1006B0008093B10020E030E0E032F10511F421E058
:1006C00030E0429FC001439F900D529F900D112436
:1006D0008093B20020E030E0B19711F421E030E0E7
:1006E000429FC001439F900D529F900D1124809313
:1006F000B3001092AB006091A300169F602D1124EF
:1007000086E10E944E076091A3008091B300689F2C
:10071000602D112485E10E944E076091A400809114
:10072000AD00689F602D112484E10E944E07609106
:10073000A4008091B200689F602D112483E10E9483
:100740004E076091A5008091AE00689F602D112436
:1007500082E10E944E076091A5008091B100689FE0
:10076000602D112487E10E944E076091A6008091C0
:10077000AF00689F602D112480E10E944E076091B8
:10078000A6008091B000689F602D112481E10E9435
:100790004E071F910895EF92FF920F931F930E94AF
:1007A0007D0624EF31E040E050E00E94F90B122F6B
:1007B000032FF42EE52E2093B4003093B500409320
:1007C000B6005093B700622F732F842F952F2CE320
:1007D00030E040E050E00E94F90B7093B900609364
:1007E000B800612F702F8F2D9E2D2CE330E040E05C
:1007F00050E00E94F90BDA01C9016CE370E00E943D
:10080000E60B9093BB008093BA00612F702F8F2D61
:100810009E2D20E13EE040E050E00E94F90BDA011D
:10082000C90168E170E00E94E60B8093BC009093E0
:10083000BD0062E070E00E94E60B9093BF008093E1
:10084000BE001F910F91FF90EF9008950E948302C8
:100850000E94A8020E9476010E94C1000E94BD026F
:100860000E94CB030E94D202089588E890E060E1E4
:1008700042E020E00E943E050E94350108950F935A
:100880001F938C01FC01848160E00E944E0781E08F
:1008900090E00E94E606F801848161E00E944E0724
:1008A00081E090E00E94E606F801848160E00E9409
:1008B0004E0784E690E00E94E6061F910F9108958E
:1008C000CF92DF92EF92FF920F931F93CF93DF931C
:1008D000D82EC92E282F392FC9018C01C0E0D0E0B5
:1008E000E62EFF24F801858161E00E942807B70108
:1008F0000C2E02C0759567950A94E2F76170F801B5
:1009000085810E944E0721960F5F1F4FC830D10589
:1009100049F78D2D9C2D0E943F04DF91CF911F91AF
:100920000F91FF90EF90DF90CF900895CF92DF92DC
:10093000EF92FF920F931F93CF93DF93D82EC92E80
:10094000282F392FC9018C01C0E0D0E0E62EFF240A
:10095000F801858161E00E942807B7010C2E02C0D2
:10096000759567950A94E2F76170F80185810E9498
:100970004E0721960F5F1F4FC430D10549F78D2DCB
:100980009C2D0E943F04DF91CF911F910F91FF900A
:10099000EF90DF90CF9008951F93CF93DF93EC01FA
:1009A000162F8A81642F0E944E078B818F3F19F08A
:1009B00060E00E944E078D8584FF05C0CE01612F47
:1009C0000E9460040EC0612F70E084E07595679509
:1009D0008A95E1F7CE010E949604CE01612F0E9414
:1009E0009604DF91CF911F91089541E00E94CC04BD
:1009F000089540E00E94CC040895FC016685862F8E
:100A0000846086876C60CF010E94F9040895DF93AB
:100A1000CF93CDB7DEB728970FB6F894DEBF0FBEE1
:100A2000CDBF9C01FE013196AFE7B0E088E00D90AC
:100A300001928150E1F7F9018189841710F4482F60
:100A40004150E42FF0E0EE0FFF1FEC0FFD1F8181FE
:100A5000680F6068C9010E94F90428960FB6F894DF
:100A6000DEBF0FBECDBFCF91DF91089561E00E9440
:100A7000F90480ED97E00E94E6060895CF93DF9396
:100A8000EC01423018F08D8588608D87498B1A8A79
:100A9000222329F0413019F48D8584608D8780E50B
:100AA00093EC0E94E6068A8160E00E944E078C81EA
:100AB00060E00E944E078B818F3F19F060E00E943A
:100AC0004E076D8564FD1DC0CE0163E00E94960453
:100AD00084E991E10E94E606CE0163E00E9496045B
:100AE00084E991E10E94E606CE0163E00E9496044B
:100AF00086E990E00E94E606CE0162E00E9496043C
:100B000016C06062CE010E94F90484E991E10E945E
:100B1000E6066D856062CE010E94F90486E990E0E8
:100B20000E94E6066D856062CE010E94F9046D8523
:100B30006062CE010E94F90484E08E87CE010E949B
:100B4000FD04CE010E94360582E08F87CE0166E06B
:100B50000E94F904DF91CF9108956F927F928F9256
:100B6000AF92CF92EF920F931F93DF93CF93CDB7B6
:100B7000DEB73C01162F842FF301428323830483C5
:100B8000E582C682A78280869D8591879E85928711
:100B90009F8593879889948761E00E942807F301D5
:100BA00083818F3F19F061E00E942807F30184815F
:100BB00061E00E942807112319F0F301158603C094
:100BC00080E1F3018587C30160E141E020E00E94FC
:100BD0003E05CF91DF911F910F91EF90CF90AF9095
:100BE0008F907F906F9008958F92AF92CF92EF92F7
:100BF0000F931F93CF93DF93DC01362F542F722F67
:100C0000102FAE2C8C2C89E790E011969C938E933C
:100C100000D000D0EDB7FEB73196CDB7DEB7198260
:100C2000118212821382CD0161E0432F2FEF052F35
:100C3000E72EC12E0E94AD050F900F900F900F90E0
:100C4000DF91CF911F910F91EF90CF90AF908F9048
:100C500008951F920F920FB60F9211242F933F9376
:100C60004F935F936F937F938F939F93AF93BF93B4
:100C70002091C4003091C5004091C6005091C7003A
:100C80007091C800DA01C9010296A11DB11D672F3C
:100C90006A5F6D3730F06D57DA01C9010396A11D07
:100CA000B11D6093C8008093C4009093C500A093C9
:100CB000C600B093C7008091C0009091C100A09180
:100CC000C200B091C3000196A11DB11D8093C00068
:100CD0009093C100A093C200B093C300BF91AF91A5
:100CE0009F918F917F916F915F914F913F912F9144
:100CF0000F900FBE0F901F9018958FB7F89420910A
:100D0000C4003091C5004091C6005091C7008FBF0C
:100D1000B901CA0108959B01AC017FB7F894809195
:100D2000C0009091C100A091C200B091C30062B711
:100D300008B600FE05C06F3F19F00196A11DB11D58
:100D40007FBFBA2FA92F982F8827860F911DA11D2D
:100D5000B11D63E0880F991FAA1FBB1F6A95D1F7C9
:100D6000BC012EC0FFB7F8948091C0009091C100E3
:100D7000A091C200B091C300E2B708B600FE05C062
:100D8000EF3F19F00196A11DB11DFFBFBA2FA92F8A
:100D9000982F88278E0F911DA11DB11DE3E0880FAC
:100DA000991FAA1FBB1FEA95D1F7861B970B885E78
:100DB0009340C0F2215030404040504068517C4F39
:100DC000211531054105510569F60895019739F05E
:100DD000019729F0880F991F01970197F1F708955E
:100DE000789483B7826083BF83B7816083BF89B7FC
:100DF000816089BF8EB582608EBD8EB581608EBDEB
:100E00008FB581608FBD85B5846085BD85B58064F3
:100E100085BD329A319A309A379A1AB80895982F28
:100E20008E3008F09E509770809174008295880FE4
:100E3000880F807C892B87B9369A3699FECF24B1EA
:100E400045B1942F80E030E0282B392BC90108955B
:100E5000482F50E0CA0184519F4FFC012491445314
:100E60005F4FFA0184918823C1F0E82FF0E0EE0F84
:100E7000FF1FE255FF4FA591B491662341F49FB740
:100E8000F8948C91209582238C939FBF08959FB7EF
:100E9000F8948C91822B8C939FBF0895482F50E03B
:100EA000CA01845F9E4FFC012491CA0184519F4F67
:100EB000FC01349144535F4FFA019491992351F10D
:100EC000222381F0243039F0253049F0233051F4C9
:100ED0008FB58F7702C08FB58F7D8FBD03C085B56D
:100EE0008F7D85BDE92FF0E0EE0FFF1FE854FF4F27
:100EF000A591B491662341F49FB7F8948C913095F5
:100F000083238C939FBF08959FB7F8948C91832B74
:100F10008C939FBF0895682F70E0CB01845F9E4F34
:100F2000FC012491CB0184519F4FFC0144916453F7
:100F30007F4FFB019491992319F420E030E022C007
:100F4000222381F0243039F0253049F0233051F448
:100F50008FB58F7702C08FB58F7D8FBD03C085B5EC
:100F60008F7D85BD892F90E0880F991F8E539F4FED
:100F7000FC01A591B4918C9120E030E0842311F024
:100F800021E030E0C90108950E94F0060E94350476
:100F90000E942604FDCF0F931F93CF93DF938C0104
:100FA000EB0109C02196D801ED91FC910190F081EF
:100FB000E02DC801099568816623A1F7DF91CF91E3
:100FC0001F910F910895EF92FF920F931F93CF936C
:100FD000DF938C017B01EA010CC0D7016D917D018B
:100FE000D801ED91FC910190F081E02DC8010995A7
:100FF0002197209791F7DF91CF911F910F91FF904B
:10100000EF900895DC01ED91FC910280F381E02DD9
:10101000099508952F923F924F925F926F927F921F
:101020008F929F92AF92BF92CF92DF92EF92FF92F8
:101030000F931F93DF93CF93CDB7DEB7A0970FB673
:10104000F894DEBF0FBECDBF1C016A017B014115C4
:1010500051056105710549F440E350E060E070E03E
:1010600020E030E00E94A40856C08824992454014E
:10107000422E55246624772401E010E00C0F1D1F3A
:10108000080D191DC701B601A30192010E94F90BB9
:10109000F80160830894811C911CA11CB11CC7013C
:1010A000B601A30192010E94F90BC901DA016C019A
:1010B0007D01C114D104E104F104F1F681E0E82ED0
:1010C000F12CEC0EFD1EE80CF91C3E010894611C8D
:1010D000711CD501C4010197A109B1096C01C8189F
:1010E000D90816C0F601EE0DFF1D40814A3010F4FC
:1010F000405D01C0495C552747FD5095652F752F10
:10110000C10120E030E00E94A4080894E108F10841
:101110006E147F0439F7A0960FB6F894DEBF0FBEA9
:10112000CDBFCF91DF911F910F91FF90EF90DF9096
:10113000CF90BF90AF909F908F907F906F905F9077
:101140004F903F902F900895EF92FF920F931F932F
:10115000CF93DF93EC017A018B012115310541F426
:10116000E881F9810190F081E02D642F09951BC081
:101170002A303105B1F477FF10C04DE250E060E055
:1011800070E020E030E00E94A40810950095F094F3
:10119000E094E11CF11C011D111DCE01B801A70155
:1011A0002AE00E940A08DF91CF911F910F91FF90D2
:1011B000EF900895EF92FF920F931F937B019A0196
:1011C0000027F7FC0095102FB801A7010E94A40882
:1011D0001F910F91FF90EF9008952F923F924F92A1
:1011E0005F926F927F928F929F92AF92BF92CF92B7
:1011F000DF92EF92FF920F931F93DF93CF93CDB7C0
:10120000DEB73B014C0119012A016D897E898F8966
:10121000988D6A197B098C099D09621A730A840AE0
:10122000950AA40193010E94C70BE218F308040970
:101230001509A80197010E941B0C2A0D3B1D4C1D8E
:101240005D1DB901CA01CF91DF911F910F91FF90F0
:10125000EF90DF90CF90BF90AF909F908F907F9056
:101260006F905F904F903F902F9008955058BB27FC
:10127000AA270ED075C166D130F06BD120F031F4C1
:101280009F3F11F41EF45BC10EF4E095E7FB51C1E2
:10129000E92F77D180F3BA176207730784079507A0
:1012A00018F071F49EF58FC10EF4E0950B2EBA2F55
:1012B000A02D0B01B90190010C01CA01A00111245C
:1012C000FF27591B99F0593F50F4503E68F11A1608
:1012D000F040A22F232F342F4427585FF3CF469599
:1012E00037952795A795F0405395C9F77EF41F16BB
:1012F000BA0B620B730B840BBAF09150A1F0FF0F85
:10130000BB1F661F771F881FC2F70EC0BA0F621F70
:10131000731F841F48F4879577956795B795F79560
:101320009E3F08F0B3CF9395880F08F09927EE0FF2
:10133000979587950895D9D008F481E008950CD049
:101340000FC107D140F0FED030F021F45F3F19F01B
:10135000F0C0511139C1F3C014D198F39923C9F3E6
:101360005523B1F3951B550BBB27AA2762177307AB
:10137000840738F09F5F5F4F220F331F441FAA1F5F
:10138000A9F333D00E2E3AF0E0E830D0915050401F
:10139000E695001CCAF729D0FE2F27D0660F771FCD
:1013A000881FBB1F261737074807AB07B0E809F0AF
:1013B000BB0B802DBF01FF2793585F4F2AF09E3F44
:1013C000510568F0B6C000C15F3FECF3983EDCF316
:1013D000869577956795B795F7959F5FC9F7880FBD
:1013E000911D9695879597F90895E1E0660F771F0F
:1013F000881FBB1F621773078407BA0720F0621BA0
:10140000730B840BBA0BEE1F88F7E095089504D098
:101410006894B111D9C00895BCD088F09F5790F05E
:10142000B92F9927B751A0F0D1F0660F771F881F09
:10143000991F1AF0BA95C9F712C0B13081F0C3D024
:10144000B1E00895C0C0672F782F8827B85F39F0C2
:10145000B93FCCF3869577956795B395D9F73EF468
:1014600090958095709561957F4F8F4F9F4F089510
:10147000E89409C097FB3EF490958095709561952E
:101480007F4F8F4F9F4F9923A9F0F92F96E9BB27E4
:101490009395F695879577956795B795F111F8CF60
:1014A000FAF4BB0F11F460FF1BC06F5F7F4F8F4FCB
:1014B0009F4F16C0882311F096E911C0772321F0C1
:1014C0009EE8872F762F05C0662371F096E8862F59
:1014D00070E060E02AF09A95660F771F881FDAF7B0
:1014E000880F9695879597F90895990F0008550FDD
:1014F000AA0BE0E8FEEF16161706E807F907C0F09A
:1015000012161306E407F50798F0621B730B840BA1
:10151000950B39F40A2661F0232B242B252B21F47B
:1015200008950A2609F4A140A6958FEF811D811D1B
:10153000089597F99F6780E870E060E008959FEF55
:1015400080EC089500240A9416161706180609065A
:10155000089500240A941216130614060506089529
:10156000092E0394000C11F4882352F0BB0F40F4B1
:10157000BF2B11F460FF04C06F5F7F4F8F4F9F4FF1
:10158000089557FD9058440F551F59F05F3F71F073
:101590004795880F97FB991F61F09F3F79F08795DA
:1015A0000895121613061406551FF2CF4695F1DF63
:1015B00008C0161617061806991FF1CF86957105F3
:1015C000610508940895E894BB2766277727CB0127
:1015D00097F908950EF0A6C0B2CF6894AACFD9DFCC
:1015E000C8F39923D1F3C6F3DF93CF931F930F93DF
:1015F000FF92C92FDD2788232AF02197660F771FD6
:10160000881FDAF720E030E040E85FEB9FE388399D
:1016100020F0803E30F021968F7729DEE4E5F0E07F
:1016200003C025DEE1E8F0E08DD08B01BE01EC01C6
:10163000FB2E6F5771097595771F880B990B1ADF71
:1016400028E132E741E35FE316D0AF2D9801AE0108
:10165000FF900F911F91CF91DF911ADE81CF0BD0B8
:101660007FCF70DF28F075DF18F0952309F061CF88
:1016700066CF1124A9CF85DFA0F3959FD1F3950FF5
:1016800050E0551F629FF001729FBB27F00DB11D06
:10169000639FAA27F00DB11DAA1F649F6627B00D96
:1016A000A11D661F829F2227B00DA11D621F739F7F
:1016B000B00DA11D621F839FA00D611D221F749F8D
:1016C0003327A00D611D231F849F600D211D822FD4
:1016D000762F6A2F11249F5750408AF0E1F088231B
:1016E0004AF0EE0FFF1FBB1F661F771F881F915028
:1016F0005040A9F79E3F510570F01BCF65CF5F3F6B
:10170000ECF3983EDCF3869577956795B795F7955A
:10171000E7959F5FC1F7FE2B880F911D96958795E2
:1017200097F908959F3F49F0915028F48695779551
:101730006795B7959F5F80389F4F880F96958795DF
:1017400097F90895DF93CF931F930F93FF92EF9232
:10175000DF927B018C01689405C0DA2EEF018BDFEC
:10176000FE01E894A5912591359145915591AEF3EF
:10177000EF018EDDFE019701A801DA9479F7DF9081
:10178000EF90FF900F911F91CF91DF910895629F8D
:10179000D001739FF001829FE00DF11D649FE00D69
:1017A000F11D929FF00D839FF00D749FF00D659FCA
:1017B000F00D9927729FB00DE11DF91F639FB00DC9
:1017C000E11DF91FBD01CF011124089597FB092EDA
:1017D00007260AD077FD04D049D006D000201AF49D
:1017E000709561957F4F0895F6F7909581959F4F7D
:1017F0000895A1E21A2EAA1BBB1BFD010DC0AA1F52
:10180000BB1FEE1FFF1FA217B307E407F50720F069
:10181000A21BB30BE40BF50B661F771F881F991FE4
:101820001A9469F760957095809590959B01AC012D
:10183000BD01CF01089597FB092E05260ED057FD57
:1018400004D0D7DF0AD0001C38F45095409530956D
:1018500021953F4F4F4F5F4F0895F6F79095809534
:10186000709561957F4F8F4F9F4F0895AA1BBB1BAB
:1018700051E107C0AA1FBB1FA617B70710F0A61B90
:10188000B70B881F991F5A95A9F780959095BC01B1
:10189000CD010895EE0FFF1F0590F491E02D0994FE
:0418A000F894FFCFEA
:1018A40054313A0054323A0054333A0054343A0032
:1018B40000E819460100000000F504CB07E3070027
:0818C400004000140054000074
:00000001FF
